{
  "contractName": "AuctchainHouse",
  "abi": [
    {
      "constant": true,
      "inputs": [
        {
          "name": "",
          "type": "uint256"
        }
      ],
      "name": "auctions",
      "outputs": [
        {
          "name": "id",
          "type": "uint256"
        },
        {
          "name": "seller",
          "type": "address"
        },
        {
          "name": "title",
          "type": "string"
        },
        {
          "name": "description",
          "type": "string"
        },
        {
          "name": "link",
          "type": "string"
        },
        {
          "name": "startingPrice",
          "type": "uint256"
        },
        {
          "name": "currentBid",
          "type": "uint256"
        },
        {
          "name": "registeredDate",
          "type": "uint256"
        },
        {
          "name": "status",
          "type": "uint8"
        }
      ],
      "payable": false,
      "stateMutability": "view",
      "type": "function"
    },
    {
      "constant": true,
      "inputs": [
        {
          "name": "",
          "type": "address"
        },
        {
          "name": "",
          "type": "uint256"
        }
      ],
      "name": "auctionsBidOnByUser",
      "outputs": [
        {
          "name": "",
          "type": "uint256"
        }
      ],
      "payable": false,
      "stateMutability": "view",
      "type": "function"
    },
    {
      "constant": true,
      "inputs": [
        {
          "name": "",
          "type": "address"
        },
        {
          "name": "",
          "type": "uint256"
        }
      ],
      "name": "auctionsRunByUser",
      "outputs": [
        {
          "name": "",
          "type": "uint256"
        }
      ],
      "payable": false,
      "stateMutability": "view",
      "type": "function"
    },
    {
      "anonymous": false,
      "inputs": [
        {
          "indexed": false,
          "name": "name",
          "type": "string"
        },
        {
          "indexed": false,
          "name": "email",
          "type": "string"
        },
        {
          "indexed": false,
          "name": "contact",
          "type": "string"
        }
      ],
      "name": "AccountRegistered",
      "type": "event"
    },
    {
      "anonymous": false,
      "inputs": [
        {
          "indexed": false,
          "name": "id",
          "type": "uint256"
        },
        {
          "indexed": false,
          "name": "title",
          "type": "string"
        },
        {
          "indexed": false,
          "name": "startingPrice",
          "type": "uint256"
        }
      ],
      "name": "AuctionCreated",
      "type": "event"
    },
    {
      "anonymous": false,
      "inputs": [
        {
          "indexed": false,
          "name": "auctionId",
          "type": "uint256"
        },
        {
          "indexed": false,
          "name": "bidder",
          "type": "address"
        },
        {
          "indexed": false,
          "name": "amount",
          "type": "uint256"
        }
      ],
      "name": "BidPlaced",
      "type": "event"
    },
    {
      "anonymous": false,
      "inputs": [
        {
          "indexed": false,
          "name": "auctionId",
          "type": "uint256"
        },
        {
          "indexed": false,
          "name": "winningBidder",
          "type": "address"
        },
        {
          "indexed": false,
          "name": "amount",
          "type": "uint256"
        }
      ],
      "name": "AuctionEndedWithWinner",
      "type": "event"
    },
    {
      "anonymous": false,
      "inputs": [
        {
          "indexed": false,
          "name": "auctionId",
          "type": "uint256"
        },
        {
          "indexed": false,
          "name": "topBid",
          "type": "uint256"
        }
      ],
      "name": "AuctionEndedWithoutWinner",
      "type": "event"
    },
    {
      "constant": false,
      "inputs": [
        {
          "name": "_addresses",
          "type": "address"
        },
        {
          "name": "_name",
          "type": "string"
        },
        {
          "name": "_email",
          "type": "string"
        },
        {
          "name": "_contact",
          "type": "string"
        },
        {
          "name": "_homeAddress",
          "type": "string"
        }
      ],
      "name": "register",
      "outputs": [],
      "payable": false,
      "stateMutability": "nonpayable",
      "type": "function"
    },
    {
      "constant": true,
      "inputs": [
        {
          "name": "addr",
          "type": "address"
        }
      ],
      "name": "isRegistered",
      "outputs": [
        {
          "name": "",
          "type": "bool"
        }
      ],
      "payable": false,
      "stateMutability": "view",
      "type": "function"
    },
    {
      "constant": true,
      "inputs": [
        {
          "name": "addressVal",
          "type": "address"
        }
      ],
      "name": "getRegisteredData",
      "outputs": [
        {
          "name": "",
          "type": "string"
        },
        {
          "name": "",
          "type": "string"
        },
        {
          "name": "",
          "type": "string"
        },
        {
          "name": "",
          "type": "string"
        }
      ],
      "payable": false,
      "stateMutability": "view",
      "type": "function"
    },
    {
      "constant": false,
      "inputs": [
        {
          "name": "_title",
          "type": "string"
        },
        {
          "name": "_description",
          "type": "string"
        },
        {
          "name": "_link",
          "type": "string"
        },
        {
          "name": "_startingPrice",
          "type": "uint256"
        }
      ],
      "name": "createAuction",
      "outputs": [
        {
          "name": "auctionId",
          "type": "uint256"
        }
      ],
      "payable": false,
      "stateMutability": "nonpayable",
      "type": "function"
    },
    {
      "constant": true,
      "inputs": [
        {
          "name": "idx",
          "type": "uint256"
        }
      ],
      "name": "getAuction",
      "outputs": [
        {
          "name": "",
          "type": "uint256"
        },
        {
          "name": "",
          "type": "address"
        },
        {
          "name": "",
          "type": "string"
        },
        {
          "name": "",
          "type": "string"
        },
        {
          "name": "",
          "type": "string"
        },
        {
          "name": "",
          "type": "uint256"
        },
        {
          "name": "",
          "type": "uint256"
        },
        {
          "name": "",
          "type": "uint256"
        }
      ],
      "payable": false,
      "stateMutability": "view",
      "type": "function"
    },
    {
      "constant": true,
      "inputs": [],
      "name": "getAuctionCount",
      "outputs": [
        {
          "name": "",
          "type": "uint256"
        }
      ],
      "payable": false,
      "stateMutability": "view",
      "type": "function"
    },
    {
      "constant": true,
      "inputs": [
        {
          "name": "idx",
          "type": "uint256"
        }
      ],
      "name": "isRegisterAuction",
      "outputs": [
        {
          "name": "",
          "type": "bool"
        }
      ],
      "payable": false,
      "stateMutability": "view",
      "type": "function"
    },
    {
      "constant": true,
      "inputs": [
        {
          "name": "idx",
          "type": "uint256"
        }
      ],
      "name": "getStatus",
      "outputs": [
        {
          "name": "",
          "type": "uint256"
        }
      ],
      "payable": false,
      "stateMutability": "view",
      "type": "function"
    },
    {
      "constant": true,
      "inputs": [
        {
          "name": "addr",
          "type": "address"
        }
      ],
      "name": "getAuctionsCountForUser",
      "outputs": [
        {
          "name": "",
          "type": "uint256"
        }
      ],
      "payable": false,
      "stateMutability": "view",
      "type": "function"
    },
    {
      "constant": true,
      "inputs": [
        {
          "name": "addr",
          "type": "address"
        },
        {
          "name": "idx",
          "type": "uint256"
        }
      ],
      "name": "getAuctionIdForUserAndIdx",
      "outputs": [
        {
          "name": "",
          "type": "uint256"
        }
      ],
      "payable": false,
      "stateMutability": "view",
      "type": "function"
    },
    {
      "constant": true,
      "inputs": [
        {
          "name": "addr",
          "type": "address"
        }
      ],
      "name": "getBidCountForUser",
      "outputs": [
        {
          "name": "",
          "type": "uint256"
        }
      ],
      "payable": false,
      "stateMutability": "view",
      "type": "function"
    },
    {
      "constant": true,
      "inputs": [
        {
          "name": "auctionId",
          "type": "uint256"
        }
      ],
      "name": "getBidCountForAuction",
      "outputs": [
        {
          "name": "",
          "type": "uint256"
        }
      ],
      "payable": false,
      "stateMutability": "view",
      "type": "function"
    },
    {
      "constant": true,
      "inputs": [
        {
          "name": "auctionId",
          "type": "uint256"
        },
        {
          "name": "idx",
          "type": "uint256"
        }
      ],
      "name": "getBidForAuctionByIdx",
      "outputs": [
        {
          "name": "bidder",
          "type": "address"
        },
        {
          "name": "amount",
          "type": "uint256"
        },
        {
          "name": "timestamp",
          "type": "uint256"
        }
      ],
      "payable": false,
      "stateMutability": "view",
      "type": "function"
    },
    {
      "constant": false,
      "inputs": [
        {
          "name": "auctionId",
          "type": "uint256"
        }
      ],
      "name": "placeBid",
      "outputs": [
        {
          "name": "success",
          "type": "bool"
        }
      ],
      "payable": true,
      "stateMutability": "payable",
      "type": "function"
    },
    {
      "constant": true,
      "inputs": [],
      "name": "getRefundValue",
      "outputs": [
        {
          "name": "",
          "type": "uint256"
        }
      ],
      "payable": false,
      "stateMutability": "view",
      "type": "function"
    },
    {
      "constant": false,
      "inputs": [],
      "name": "withdrawRefund",
      "outputs": [],
      "payable": false,
      "stateMutability": "nonpayable",
      "type": "function"
    },
    {
      "constant": false,
      "inputs": [
        {
          "name": "auctionId",
          "type": "uint256"
        }
      ],
      "name": "endAuction",
      "outputs": [
        {
          "name": "success",
          "type": "bool"
        }
      ],
      "payable": false,
      "stateMutability": "nonpayable",
      "type": "function"
    },
    {
      "constant": false,
      "inputs": [
        {
          "name": "auctionId",
          "type": "uint256"
        }
      ],
      "name": "getTopBidder",
      "outputs": [
        {
          "name": "",
          "type": "address"
        }
      ],
      "payable": false,
      "stateMutability": "nonpayable",
      "type": "function"
    }
  ],
  "bytecode": "0x608060405234801561001057600080fd5b506128bd806100206000396000f30060806040526004361061011d576000357c0100000000000000000000000000000000000000000000000000000000900463ffffffff16806304744d0814610122578063110f88741461018f5780631313c739146101a657806324a12edf1461022b5780633a8820e51461028c5780634bc32ea2146103e7578063571a26a01461042857806359e540951461060a5780635c622a0e1461063557806375b6a06e1461067657806378bd7935146107895780637d176e3f1461095657806388c93e2214610b565780639979ef4514610bb75780639abb2c1614610bef5780639ecbab2314610c46578063b323615d14610ca7578063b9a2de3a14610cec578063c3c5a54714610d31578063c44e664014610d8c578063e103c88314610db7575b600080fd5b34801561012e57600080fd5b5061014d60048036038101908080359060200190929190505050610e0e565b604051808273ffffffffffffffffffffffffffffffffffffffff1673ffffffffffffffffffffffffffffffffffffffff16815260200191505060405180910390f35b34801561019b57600080fd5b506101a4610ece565b005b3480156101b257600080fd5b506101db6004803603810190808035906020019092919080359060200190929190505050610fda565b604051808473ffffffffffffffffffffffffffffffffffffffff1673ffffffffffffffffffffffffffffffffffffffff168152602001838152602001828152602001935050505060405180910390f35b34801561023757600080fd5b50610276600480360381019080803573ffffffffffffffffffffffffffffffffffffffff16906020019092919080359060200190929190505050611078565b6040518082815260200191505060405180910390f35b34801561029857600080fd5b506103e5600480360381019080803573ffffffffffffffffffffffffffffffffffffffff169060200190929190803590602001908201803590602001908080601f0160208091040260200160405190810160405280939291908181526020018383808284378201915050505050509192919290803590602001908201803590602001908080601f0160208091040260200160405190810160405280939291908181526020018383808284378201915050505050509192919290803590602001908201803590602001908080601f0160208091040260200160405190810160405280939291908181526020018383808284378201915050505050509192919290803590602001908201803590602001908080601f01602080910402602001604051908101604052809392919081815260200183838082843782019150505050505091929192905050506110d9565b005b3480156103f357600080fd5b5061041260048036038101908080359060200190929190505050611357565b6040518082815260200191505060405180910390f35b34801561043457600080fd5b5061045360048036038101908080359060200190929190505050611389565b604051808a81526020018973ffffffffffffffffffffffffffffffffffffffff1673ffffffffffffffffffffffffffffffffffffffff1681526020018060200180602001806020018881526020018781526020018681526020018560028111156104b957fe5b60ff16815260200184810384528b818151815260200191508051906020019080838360005b838110156104f95780820151818401526020810190506104de565b50505050905090810190601f1680156105265780820380516001836020036101000a031916815260200191505b5084810383528a818151815260200191508051906020019080838360005b8381101561055f578082015181840152602081019050610544565b50505050905090810190601f16801561058c5780820380516001836020036101000a031916815260200191505b50848103825289818151815260200191508051906020019080838360005b838110156105c55780820151818401526020810190506105aa565b50505050905090810190601f1680156105f25780820380516001836020036101000a031916815260200191505b509c5050505050505050505050505060405180910390f35b34801561061657600080fd5b5061061f6115db565b6040518082815260200191505060405180910390f35b34801561064157600080fd5b5061066060048036038101908080359060200190929190505050611622565b6040518082815260200191505060405180910390f35b34801561068257600080fd5b50610773600480360381019080803590602001908201803590602001908080601f0160208091040260200160405190810160405280939291908181526020018383808284378201915050505050509192919290803590602001908201803590602001908080601f0160208091040260200160405190810160405280939291908181526020018383808284378201915050505050509192919290803590602001908201803590602001908080601f016020809104026020016040519081016040528093929190818152602001838380828437820191505050505050919291929080359060200190929190505050611669565b6040518082815260200191505060405180910390f35b34801561079557600080fd5b506107b46004803603810190808035906020019092919050505061193f565b604051808981526020018873ffffffffffffffffffffffffffffffffffffffff1673ffffffffffffffffffffffffffffffffffffffff16815260200180602001806020018060200187815260200186815260200185815260200184810384528a818151815260200191508051906020019080838360005b8381101561084657808201518184015260208101905061082b565b50505050905090810190601f1680156108735780820380516001836020036101000a031916815260200191505b50848103835289818151815260200191508051906020019080838360005b838110156108ac578082015181840152602081019050610891565b50505050905090810190601f1680156108d95780820380516001836020036101000a031916815260200191505b50848103825288818151815260200191508051906020019080838360005b838110156109125780820151818401526020810190506108f7565b50505050905090810190601f16801561093f5780820380516001836020036101000a031916815260200191505b509b50505050505050505050505060405180910390f35b34801561096257600080fd5b50610997600480360381019080803573ffffffffffffffffffffffffffffffffffffffff169060200190929190505050611c04565b6040518080602001806020018060200180602001858103855289818151815260200191508051906020019080838360005b838110156109e35780820151818401526020810190506109c8565b50505050905090810190601f168015610a105780820380516001836020036101000a031916815260200191505b50858103845288818151815260200191508051906020019080838360005b83811015610a49578082015181840152602081019050610a2e565b50505050905090810190601f168015610a765780820380516001836020036101000a031916815260200191505b50858103835287818151815260200191508051906020019080838360005b83811015610aaf578082015181840152602081019050610a94565b50505050905090810190601f168015610adc5780820380516001836020036101000a031916815260200191505b50858103825286818151815260200191508051906020019080838360005b83811015610b15578082015181840152602081019050610afa565b50505050905090810190601f168015610b425780820380516001836020036101000a031916815260200191505b509850505050505050505060405180910390f35b348015610b6257600080fd5b50610ba1600480360381019080803573ffffffffffffffffffffffffffffffffffffffff16906020019092919080359060200190929190505050611fec565b6040518082815260200191505060405180910390f35b610bd56004803603810190808035906020019092919050505061201c565b604051808215151515815260200191505060405180910390f35b348015610bfb57600080fd5b50610c30600480360381019080803573ffffffffffffffffffffffffffffffffffffffff169060200190929190505050612316565b6040518082815260200191505060405180910390f35b348015610c5257600080fd5b50610c91600480360381019080803573ffffffffffffffffffffffffffffffffffffffff16906020019092919080359060200190929190505050612362565b6040518082815260200191505060405180910390f35b348015610cb357600080fd5b50610cd260048036038101908080359060200190929190505050612392565b604051808215151515815260200191505060405180910390f35b348015610cf857600080fd5b50610d17600480360381019080803590602001909291905050506123a3565b604051808215151515815260200191505060405180910390f35b348015610d3d57600080fd5b50610d72600480360381019080803573ffffffffffffffffffffffffffffffffffffffff16906020019092919050505061250d565b604051808215151515815260200191505060405180910390f35b348015610d9857600080fd5b50610da1612566565b6040518082815260200191505060405180910390f35b348015610dc357600080fd5b50610df8600480360381019080803573ffffffffffffffffffffffffffffffffffffffff169060200190929190505050612572565b6040518082815260200191505060405180910390f35b600080600083815481101515610e2057fe5b90600052602060002090600a0201905060016002811115610e3d57fe5b8160080160009054906101000a900460ff166002811115610e5a57fe5b141515610e6657600080fd5b60008160090180549050111515610e7c57600080fd5b806009018160090180549050815481101515610e9457fe5b906000526020600020906003020160000160009054906101000a900473ffffffffffffffffffffffffffffffffffffffff16915050919050565b6000600460003373ffffffffffffffffffffffffffffffffffffffff1673ffffffffffffffffffffffffffffffffffffffff1681526020019081526020016000205490506000600460003373ffffffffffffffffffffffffffffffffffffffff1673ffffffffffffffffffffffffffffffffffffffff168152602001908152602001600020819055503373ffffffffffffffffffffffffffffffffffffffff166108fc829081150290604051600060405180830381858888f193505050501515610fd75780600460003373ffffffffffffffffffffffffffffffffffffffff1673ffffffffffffffffffffffffffffffffffffffff168152602001908152602001600020819055505b50565b60008060008060008087815481101515610ff057fe5b90600052602060002090600a020191506001826009018054905003861115151561101957600080fd5b816009018681548110151561102a57fe5b906000526020600020906003020190508060000160009054906101000a900473ffffffffffffffffffffffffffffffffffffffff168160010154826002015494509450945050509250925092565b6000600260008473ffffffffffffffffffffffffffffffffffffffff1673ffffffffffffffffffffffffffffffffffffffff168152602001908152602001600020828154811015156110c657fe5b9060005260206000200154905092915050565b60a06040519081016040528085815260200184815260200183815260200182815260200160011515815250600160008773ffffffffffffffffffffffffffffffffffffffff1673ffffffffffffffffffffffffffffffffffffffff168152602001908152602001600020600082015181600001908051906020019061115f9291906125be565b50602082015181600101908051906020019061117c9291906125be565b5060408201518160020190805190602001906111999291906125be565b5060608201518160030190805190602001906111b69291906125be565b5060808201518160040160006101000a81548160ff0219169083151502179055509050507fdc107de4c3c731b352a259c166ef69efecf42c27fd6931856cb10f96ade2dc0584848460405180806020018060200180602001848103845287818151815260200191508051906020019080838360005b8381101561124657808201518184015260208101905061122b565b50505050905090810190601f1680156112735780820380516001836020036101000a031916815260200191505b50848103835286818151815260200191508051906020019080838360005b838110156112ac578082015181840152602081019050611291565b50505050905090810190601f1680156112d95780820380516001836020036101000a031916815260200191505b50848103825285818151815260200191508051906020019080838360005b838110156113125780820151818401526020810190506112f7565b50505050905090810190601f16801561133f5780820380516001836020036101000a031916815260200191505b50965050505050505060405180910390a15050505050565b60008060008381548110151561136957fe5b90600052602060002090600a020190508060090180549050915050919050565b60008181548110151561139857fe5b90600052602060002090600a02016000915090508060000154908060010160009054906101000a900473ffffffffffffffffffffffffffffffffffffffff1690806002018054600181600116156101000203166002900480601f0160208091040260200160405190810160405280929190818152602001828054600181600116156101000203166002900480156114705780601f1061144557610100808354040283529160200191611470565b820191906000526020600020905b81548152906001019060200180831161145357829003601f168201915b505050505090806003018054600181600116156101000203166002900480601f01602080910402602001604051908101604052809291908181526020018280546001816001161561010002031660029004801561150e5780601f106114e35761010080835404028352916020019161150e565b820191906000526020600020905b8154815290600101906020018083116114f157829003601f168201915b505050505090806004018054600181600116156101000203166002900480601f0160208091040260200160405190810160405280929190818152602001828054600181600116156101000203166002900480156115ac5780601f10611581576101008083540402835291602001916115ac565b820191906000526020600020905b81548152906001019060200180831161158f57829003601f168201915b5050505050908060050154908060060154908060070154908060080160009054906101000a900460ff16905089565b6000600460003373ffffffffffffffffffffffffffffffffffffffff1673ffffffffffffffffffffffffffffffffffffffff16815260200190815260200160002054905090565b60008060008381548110151561163457fe5b90600052602060002090600a020190508060080160009054906101000a900460ff16600281111561166157fe5b915050919050565b600080600160003373ffffffffffffffffffffffffffffffffffffffff1673ffffffffffffffffffffffffffffffffffffffff16815260200190815260200160002060040160009054906101000a900460ff1615156116c757600080fd5b600080548091906001016116db919061263e565b91506000828154811015156116ec57fe5b90600052602060002090600a020190506000805490508160000181905550338160010160006101000a81548173ffffffffffffffffffffffffffffffffffffffff021916908373ffffffffffffffffffffffffffffffffffffffff16021790555085816002019080519060200190611765929190612670565b508481600301908051906020019061177e929190612670565b5083816004019080519060200190611797929190612670565b5042816007018190555060018160080160006101000a81548160ff021916908360028111156117c257fe5b0217905550828160050181905550828160060181905550600260008260010160009054906101000a900473ffffffffffffffffffffffffffffffffffffffff1673ffffffffffffffffffffffffffffffffffffffff1673ffffffffffffffffffffffffffffffffffffffff1681526020019081526020016000208290806001815401808255809150509060018203906000526020600020016000909192909190915055507f71ec34891b539684f9d6a8e102eaab1a9aebc42e3c7a517ed2a3e911f26950448282600201836005015460405180848152602001806020018381526020018281038252848181546001816001161561010002031660029004815260200191508054600181600116156101000203166002900480156119265780601f106118fb57610100808354040283529160200191611926565b820191906000526020600020905b81548152906001019060200180831161190957829003601f168201915b505094505050505060405180910390a150949350505050565b600080606080606060008060008060008a81548110151561195c57fe5b90600052602060002090600a02019050600073ffffffffffffffffffffffffffffffffffffffff168160010160009054906101000a900473ffffffffffffffffffffffffffffffffffffffff1673ffffffffffffffffffffffffffffffffffffffff16141515156119cc57600080fd5b80600001548160010160009054906101000a900473ffffffffffffffffffffffffffffffffffffffff16826002018360030184600401856005015486600601548760090180549050858054600181600116156101000203166002900480601f016020809104026020016040519081016040528092919081815260200182805460018160011615610100020316600290048015611aa95780601f10611a7e57610100808354040283529160200191611aa9565b820191906000526020600020905b815481529060010190602001808311611a8c57829003601f168201915b50505050509550848054600181600116156101000203166002900480601f016020809104026020016040519081016040528092919081815260200182805460018160011615610100020316600290048015611b455780601f10611b1a57610100808354040283529160200191611b45565b820191906000526020600020905b815481529060010190602001808311611b2857829003601f168201915b50505050509450838054600181600116156101000203166002900480601f016020809104026020016040519081016040528092919081815260200182805460018160011615610100020316600290048015611be15780601f10611bb657610100808354040283529160200191611be1565b820191906000526020600020905b815481529060010190602001808311611bc457829003601f168201915b505050505093509850985098509850985098509850985050919395975091939597565b606080606080600160008673ffffffffffffffffffffffffffffffffffffffff1673ffffffffffffffffffffffffffffffffffffffff16815260200190815260200160002060040160009054906101000a900460ff161515611c6557600080fd5b600160008673ffffffffffffffffffffffffffffffffffffffff1673ffffffffffffffffffffffffffffffffffffffff168152602001908152602001600020600001600160008773ffffffffffffffffffffffffffffffffffffffff1673ffffffffffffffffffffffffffffffffffffffff168152602001908152602001600020600101600160008873ffffffffffffffffffffffffffffffffffffffff1673ffffffffffffffffffffffffffffffffffffffff168152602001908152602001600020600201600160008973ffffffffffffffffffffffffffffffffffffffff1673ffffffffffffffffffffffffffffffffffffffff168152602001908152602001600020600301838054600181600116156101000203166002900480601f016020809104026020016040519081016040528092919081815260200182805460018160011615610100020316600290048015611e025780601f10611dd757610100808354040283529160200191611e02565b820191906000526020600020905b815481529060010190602001808311611de557829003601f168201915b50505050509350828054600181600116156101000203166002900480601f016020809104026020016040519081016040528092919081815260200182805460018160011615610100020316600290048015611e9e5780601f10611e7357610100808354040283529160200191611e9e565b820191906000526020600020905b815481529060010190602001808311611e8157829003601f168201915b50505050509250818054600181600116156101000203166002900480601f016020809104026020016040519081016040528092919081815260200182805460018160011615610100020316600290048015611f3a5780601f10611f0f57610100808354040283529160200191611f3a565b820191906000526020600020905b815481529060010190602001808311611f1d57829003601f168201915b50505050509150808054600181600116156101000203166002900480601f016020809104026020016040519081016040528092919081815260200182805460018160011615610100020316600290048015611fd65780601f10611fab57610100808354040283529160200191611fd6565b820191906000526020600020905b815481529060010190602001808311611fb957829003601f168201915b5050505050905093509350935093509193509193565b60036020528160005260406000208181548110151561200757fe5b90600052602060002001600091509150505481565b600080600080600080600160003373ffffffffffffffffffffffffffffffffffffffff1673ffffffffffffffffffffffffffffffffffffffff16815260200190815260200160002060040160009054906101000a900460ff16151561208057600080fd5b34945060008781548110151561209257fe5b90600052602060002090600a020193508484600601541015156120b457600080fd5b8360090180549050925083600901838154811015156120cf57fe5b90600052602060002090600302019150338260000160006101000a81548173ffffffffffffffffffffffffffffffffffffffff021916908373ffffffffffffffffffffffffffffffffffffffff160217905550848260010181905550428260020181905550848460060181905550600360008360000160009054906101000a900473ffffffffffffffffffffffffffffffffffffffff1673ffffffffffffffffffffffffffffffffffffffff1673ffffffffffffffffffffffffffffffffffffffff168152602001908152602001600020879080600181540180825580915050906001820390600052602060002001600090919290919091505550600183111561226d5783600901600184038154811015156121e757fe5b906000526020600020906003020190508060010154600460008360000160009054906101000a900473ffffffffffffffffffffffffffffffffffffffff1673ffffffffffffffffffffffffffffffffffffffff1673ffffffffffffffffffffffffffffffffffffffff168152602001908152602001600020600082825401925050819055505b7f0e54eff26401bf69b81b26f60bd85ef47f5d85275c1d268d84f68d6897431c47878360000160009054906101000a900473ffffffffffffffffffffffffffffffffffffffff168460010154604051808481526020018373ffffffffffffffffffffffffffffffffffffffff1673ffffffffffffffffffffffffffffffffffffffff168152602001828152602001935050505060405180910390a1600195505050505050919050565b6000600260008373ffffffffffffffffffffffffffffffffffffffff1673ffffffffffffffffffffffffffffffffffffffff168152602001908152602001600020805490509050919050565b60026020528160005260406000208181548110151561237d57fe5b90600052602060002001600091509150505481565b600080805490508211159050919050565b600080600080848154811015156123b657fe5b90600052602060002090600a02019150600160028111156123d357fe5b8260080160009054906101000a900460ff1660028111156123f057fe5b1415156123fc57600080fd5b60008260090180549050141561243b5760028260080160006101000a81548160ff0219169083600281111561242d57fe5b021790555060019250612506565b81600901600183600901805490500381548110151561245657fe5b906000526020600020906003020190508160060154600460008360000160009054906101000a900473ffffffffffffffffffffffffffffffffffffffff1673ffffffffffffffffffffffffffffffffffffffff1673ffffffffffffffffffffffffffffffffffffffff1681526020019081526020016000206000828254019250508190555060028260080160006101000a81548160ff021916908360028111156124fc57fe5b0217905550600192505b5050919050565b6000600160008373ffffffffffffffffffffffffffffffffffffffff1673ffffffffffffffffffffffffffffffffffffffff16815260200190815260200160002060040160009054906101000a900460ff169050919050565b60008080549050905090565b6000600360008373ffffffffffffffffffffffffffffffffffffffff1673ffffffffffffffffffffffffffffffffffffffff168152602001908152602001600020805490509050919050565b828054600181600116156101000203166002900490600052602060002090601f016020900481019282601f106125ff57805160ff191683800117855561262d565b8280016001018555821561262d579182015b8281111561262c578251825591602001919060010190612611565b5b50905061263a91906126f0565b5090565b81548183558181111561266b57600a0281600a02836000526020600020918201910161266a9190612715565b5b505050565b828054600181600116156101000203166002900490600052602060002090601f016020900481019282601f106126b157805160ff19168380011785556126df565b828001600101855582156126df579182015b828111156126de5782518255916020019190600101906126c3565b5b5090506126ec91906126f0565b5090565b61271291905b8082111561270e5760008160009055506001016126f6565b5090565b90565b6127cc91905b808211156127c8576000808201600090556001820160006101000a81549073ffffffffffffffffffffffffffffffffffffffff021916905560028201600061276391906127cf565b60038201600061277391906127cf565b60048201600061278391906127cf565b6005820160009055600682016000905560078201600090556008820160006101000a81549060ff02191690556009820160006127bf9190612817565b50600a0161271b565b5090565b90565b50805460018160011615610100020316600290046000825580601f106127f55750612814565b601f01602090049060005260206000209081019061281391906126f0565b5b50565b5080546000825560030290600052602060002090810190612838919061283b565b50565b61288e91905b8082111561288a57600080820160006101000a81549073ffffffffffffffffffffffffffffffffffffffff02191690556001820160009055600282016000905550600301612841565b5090565b905600a165627a7a72305820ed0cc92ca6ce9953aaa9c90de630a0f9f17ac0396c698aec9b17a89665f0b8080029",
  "source": "pragma solidity ^0.4.24;\n\ncontract AuctchainHouse {\n    \n    struct Bid {\n        address bidder;\n        uint amount;\n        uint timestamp;\n    }\n    \n    struct PersonInfo{\n        string  name;\n        string  email;\n        string  contact;\n        string  homeAddress;\n        bool status;\n    }\n    \n    enum AuctionStatus {Pending, Active, Inactive}\n    \n    struct Auction {\n        // Location and ownership information of the item for sale\n        uint id;\n        address seller;\n        \n        // Auction metadata\n        string title;\n        string description;\n        string link;\n        // uint blockNumberOfDeadline;\n        // Pricing\n        uint256 startingPrice;\n        uint256 currentBid;\n        uint registeredDate;\n        AuctionStatus status;\n        \n        Bid[] bids;\n    }\n    \n    Auction[] public auctions; // All created auctions\n    \n    mapping(address => PersonInfo) registeredUser;\n    mapping(address => uint[]) public auctionsRunByUser; // Pointer to auctions index for auctions run by this user\n    mapping(address => uint[]) public auctionsBidOnByUser; // Pointer to auctions index for auctions this user has bid on\n    mapping(address => uint) refunds;\n    \n    // Events\n    event AccountRegistered(string name, string email, string contact);\n    event AuctionCreated(uint id, string title, uint256 startingPrice);\n    event BidPlaced(uint auctionId, address bidder, uint256 amount);\n    event AuctionEndedWithWinner(uint auctionId, address winningBidder, uint256 amount);\n    event AuctionEndedWithoutWinner(uint auctionId, uint256 topBid);\n    \n    function register(\n        address _addresses,\n        string  _name,\n        string  _email,\n        string  _contact,\n        string  _homeAddress) public {\n            \n        registeredUser[_addresses] = PersonInfo(_name,_email,_contact,_homeAddress,true);\n        emit AccountRegistered(_name, _email, _contact);\n    }\n\n    function isRegistered(address addr) public view returns (bool) {\n        return registeredUser[addr].status;\n    }\n\n    function getRegisteredData(address addressVal) public view returns (string , string , string , string){\n        require(registeredUser[addressVal].status);\n        return (\n            registeredUser[addressVal].name,\n            registeredUser[addressVal].email,\n            registeredUser[addressVal].contact,\n            registeredUser[addressVal].homeAddress);\n    }\n    \n    function createAuction(\n        string  _title,\n        string  _description,\n        string  _link,\n        // uint _deadline,\n        uint256 _startingPrice) public returns (uint auctionId) {\n        \n        require(registeredUser[msg.sender].status);\n    \n        auctionId = auctions.length++;\n        Auction storage a = auctions[auctionId];\n        a.id = auctions.length;\n        a.seller = msg.sender;\n        a.title = _title;\n        a.description = _description;\n        a.link = _link;\n        a.registeredDate = now;\n        // a.blockNumberOfDeadline = _deadline;\n        a.status = AuctionStatus.Active;\n        a.startingPrice = _startingPrice;\n        a.currentBid = _startingPrice;\n        \n        auctionsRunByUser[a.seller].push(auctionId);\n        \n        emit AuctionCreated(auctionId, a.title, a.startingPrice);\n    }\n    \n    function getAuction(uint idx) public view returns (\n        uint,\n        address,\n        string ,\n        string ,\n        string ,\n        // uint,\n        uint256,\n        uint256,\n        uint) {\n        \n        Auction storage a = auctions[idx];\n        require(a.seller != address(0));\n        \n        return (\n            a.id,\n            a.seller,\n            a.title,\n            a.description,\n            a.link,\n            // a.blockNumberOfDeadline,\n            a.startingPrice,\n            a.currentBid,\n            a.bids.length);\n    }\n    \n    function getAuctionCount() public view returns (uint) {\n        return auctions.length;\n    }\n\n    function isRegisterAuction(uint idx) public view returns (bool) {\n        return (idx <= auctions.length);\n    }\n    \n    function getStatus(uint idx) public view returns (uint) {\n        Auction storage a = auctions[idx];\n        return uint(a.status);\n    }\n\n    function getAuctionsCountForUser(address addr) public view returns (uint) {\n        return auctionsRunByUser[addr].length;\n    }\n\n    function getAuctionIdForUserAndIdx(address addr, uint idx) public view returns (uint) {\n        return auctionsRunByUser[addr][idx];\n    }\n    \n    function getBidCountForUser(address addr) public view returns (uint) {\n        return auctionsBidOnByUser[addr].length;\n    }\n\n    function getBidCountForAuction(uint auctionId) public view returns (uint) {\n        Auction storage a = auctions[auctionId];\n        return a.bids.length;\n    }\n    \n    function getBidForAuctionByIdx(uint auctionId, uint idx) public view returns (address bidder, uint256 amount, uint timestamp) {\n        Auction storage a = auctions[auctionId];\n        require(idx <= a.bids.length - 1);\n\n        Bid storage b = a.bids[idx];\n        return (b.bidder, b.amount, b.timestamp);\n    }\n    \n    function placeBid(uint auctionId) public payable returns (bool success) {\n        require(registeredUser[msg.sender].status);\n        uint256 amount = msg.value;\n        Auction storage a = auctions[auctionId];\n\n        // require(now < a.blockNumberOfDeadline);\n        require(a.currentBid < amount);\n\n        uint bidIdx = a.bids.length;\n        Bid storage b = a.bids[bidIdx];\n        b.bidder = msg.sender;\n        b.amount = amount;\n        b.timestamp = now;\n        a.currentBid = amount;\n\n        auctionsBidOnByUser[b.bidder].push(auctionId);\n\n        // Log refunds for the previous bidder\n        if (bidIdx > 1) {\n            Bid storage previousBid = a.bids[bidIdx - 1];\n            refunds[previousBid.bidder] += previousBid.amount;\n        }\n\n        emit BidPlaced(auctionId, b.bidder, b.amount);\n        return true;\n    }\n    \n    function getRefundValue() public view returns (uint) {\n        return refunds[msg.sender];\n    }\n\n    function withdrawRefund() public {\n        uint refund = refunds[msg.sender];\n        refunds[msg.sender] = 0;\n        if (!msg.sender.send(refund))\n            refunds[msg.sender] = refund;\n    }\n    \n    function endAuction(uint auctionId) public returns (bool success) {\n        Auction storage a = auctions[auctionId];\n\n        // Make sure auction hasn't already been ended\n        require(a.status == AuctionStatus.Active);\n        \n        //require(block.number >= a.blockNumberOfDeadline); // Still learn more about this\n\n        // No bids, make the auction inactive\n        if (a.bids.length == 0) {\n            a.status = AuctionStatus.Inactive;\n            return true;\n        }\n\n        Bid storage topBid = a.bids[a.bids.length - 1];\n\n        // If the auction hit its reserve price\n        // if (a.currentBid >= a.reservePrice) {\n            // emit AuctionEndedWithWinner(auctionId, topBid.bidder, a.currentBid);\n        // } else {\n            // Return the item to the owner and the money to the top bidder\n            refunds[topBid.bidder] += a.currentBid;\n            // emit AuctionEndedWithoutWinner(auctionId, a.currentBid, a.reservePrice);\n        // }\n\n        a.status = AuctionStatus.Inactive;\n        return true;\n    }\n    \n    function getTopBidder(uint auctionId) public returns(address){\n        Auction storage a = auctions[auctionId];\n\n        // Make sure auction hasn't already been ended\n        require(a.status == AuctionStatus.Active);\n        require(a.bids.length > 0);\n        return a.bids[a.bids.length].bidder;\n    }\n\n    // function strConcat(string  _a, string  _b) internal pure returns (string ) {\n    //     bytes storage _ba = bytes(_a);\n    //     bytes storage _bb = bytes(_b);\n    //     bytes storage ab = new bytes (_ba.length + _bb.length);\n    //     uint i = 0;\n    //     uint k = 0;\n    //     for (i = 0; i < _ba.length; i++) ab[k++] = _ba[i];\n    //     for (i = 0; i < _bb.length; i++) ab[k++] = _bb[i];\n    //     return string (ab);\n    // }\n\n    // function addrToString(address x) public pure returns (string ) {\n    //     bytes storage b = new bytes(20);\n    //     for (uint i = 0; i < 20; i++)\n    //         b[i] = byte(uint8(uint(x) / (2**(8*(19 - i)))));\n    //     return string(b);\n    // }\n    \n}",
  "sourcePath": "D:\\_PROJECT3\\AuctionContract\\contracts\\Auction.sol",
  "compiler": {
    "name": "solc",
    "version": "0.4.24+commit.e67f0147.Emscripten.clang"
  },
  "schemaVersion": "2.0.1",
  "updatedAt": "2019-01-13T10:24:46.271Z"
}